{
  "contractName": "Courses",
  "abi": [
    {
      "inputs": [],
      "name": "CourseHasOwner",
      "type": "error"
    },
    {
      "inputs": [],
      "name": "OnlyOwner",
      "type": "error"
    },
    {
      "inputs": [
        {
          "internalType": "uint256",
          "name": "",
          "type": "uint256"
        }
      ],
      "name": "ownedCourseHash",
      "outputs": [
        {
          "internalType": "bytes32",
          "name": "",
          "type": "bytes32"
        }
      ],
      "stateMutability": "view",
      "type": "function",
      "constant": true
    },
    {
      "inputs": [
        {
          "internalType": "bytes32",
          "name": "",
          "type": "bytes32"
        }
      ],
      "name": "ownedCourses",
      "outputs": [
        {
          "internalType": "uint256",
          "name": "id",
          "type": "uint256"
        },
        {
          "internalType": "address",
          "name": "owner",
          "type": "address"
        },
        {
          "internalType": "uint256",
          "name": "price",
          "type": "uint256"
        },
        {
          "internalType": "bytes32",
          "name": "proof",
          "type": "bytes32"
        },
        {
          "internalType": "enum Courses.State",
          "name": "state",
          "type": "uint8"
        }
      ],
      "stateMutability": "view",
      "type": "function",
      "constant": true
    },
    {
      "inputs": [],
      "name": "owner",
      "outputs": [
        {
          "internalType": "address payable",
          "name": "",
          "type": "address"
        }
      ],
      "stateMutability": "view",
      "type": "function",
      "constant": true
    },
    {
      "inputs": [
        {
          "internalType": "uint256",
          "name": "courseId",
          "type": "uint256"
        },
        {
          "internalType": "bytes32",
          "name": "proof",
          "type": "bytes32"
        }
      ],
      "name": "purchaseCourse",
      "outputs": [],
      "stateMutability": "payable",
      "type": "function",
      "payable": true
    },
    {
      "inputs": [],
      "name": "getContractOwner",
      "outputs": [
        {
          "internalType": "address",
          "name": "",
          "type": "address"
        }
      ],
      "stateMutability": "view",
      "type": "function",
      "constant": true
    },
    {
      "inputs": [
        {
          "internalType": "bytes32",
          "name": "courseHash",
          "type": "bytes32"
        }
      ],
      "name": "getCourseByHash",
      "outputs": [
        {
          "components": [
            {
              "internalType": "uint256",
              "name": "id",
              "type": "uint256"
            },
            {
              "internalType": "address",
              "name": "owner",
              "type": "address"
            },
            {
              "internalType": "uint256",
              "name": "price",
              "type": "uint256"
            },
            {
              "internalType": "bytes32",
              "name": "proof",
              "type": "bytes32"
            },
            {
              "internalType": "enum Courses.State",
              "name": "state",
              "type": "uint8"
            }
          ],
          "internalType": "struct Courses.Course",
          "name": "",
          "type": "tuple"
        }
      ],
      "stateMutability": "view",
      "type": "function",
      "constant": true
    },
    {
      "inputs": [
        {
          "internalType": "uint256",
          "name": "index",
          "type": "uint256"
        }
      ],
      "name": "getCourseByIndex",
      "outputs": [
        {
          "internalType": "bytes32",
          "name": "",
          "type": "bytes32"
        }
      ],
      "stateMutability": "view",
      "type": "function",
      "constant": true
    },
    {
      "inputs": [
        {
          "internalType": "bytes32",
          "name": "courseHash",
          "type": "bytes32"
        },
        {
          "internalType": "bytes32",
          "name": "proof",
          "type": "bytes32"
        },
        {
          "internalType": "uint256",
          "name": "amount",
          "type": "uint256"
        }
      ],
      "name": "withdrawCourse",
      "outputs": [],
      "stateMutability": "payable",
      "type": "function",
      "payable": true
    },
    {
      "inputs": [],
      "name": "addFunds",
      "outputs": [
        {
          "internalType": "uint256",
          "name": "",
          "type": "uint256"
        }
      ],
      "stateMutability": "payable",
      "type": "function",
      "payable": true
    },
    {
      "inputs": [
        {
          "internalType": "bytes32",
          "name": "courseHash",
          "type": "bytes32"
        }
      ],
      "name": "deactivateCourse",
      "outputs": [],
      "stateMutability": "payable",
      "type": "function",
      "payable": true
    },
    {
      "inputs": [
        {
          "internalType": "bytes32",
          "name": "courseHash",
          "type": "bytes32"
        }
      ],
      "name": "activateCourse",
      "outputs": [],
      "stateMutability": "payable",
      "type": "function",
      "payable": true
    }
  ],
  "bytecode": "0x608060405234801561001057600080fd5b506111df806100206000396000f3fe60806040526004361061009c5760003560e01c80638da5cb5b116100645780638da5cb5b1461017e578063935d7e6d146101a9578063a26759cb146101c5578063c32f7c5f146101e3578063dd040c4b14610224578063f555d3c7146102615761009c565b80632a74f2ed146100a157806339262572146100bd578063442890d5146100d957806362e4e6ac1461010457806377cedecc14610141575b600080fd5b6100bb60048036038101906100b69190610d3a565b61027d565b005b6100d760048036038101906100d29190610d8d565b6104bc565b005b3480156100e557600080fd5b506100ee61066e565b6040516100fb9190610dfb565b60405180910390f35b34801561011057600080fd5b5061012b60048036038101906101269190610d8d565b610697565b6040516101389190610f22565b60405180910390f35b34801561014d57600080fd5b5061016860048036038101906101639190610f3d565b610773565b6040516101759190610f79565b60405180910390f35b34801561018a57600080fd5b50610193610790565b6040516101a09190610fb5565b60405180910390f35b6101c360048036038101906101be9190610d8d565b6107b4565b005b6101cd610966565b6040516101da9190610fdf565b60405180910390f35b3480156101ef57600080fd5b5061020a60048036038101906102059190610d8d565b6109e5565b60405161021b959493929190611009565b60405180910390f35b34801561023057600080fd5b5061024b60048036038101906102469190610f3d565b610a48565b6040516102589190610f79565b60405180910390f35b61027b6004803603810190610276919061105c565b610a60565b005b600080600160008681526020019081526020016000206040518060a0016040529081600082015481526020016001820160009054906101000a900473ffffffffffffffffffffffffffffffffffffffff1673ffffffffffffffffffffffffffffffffffffffff1673ffffffffffffffffffffffffffffffffffffffff16815260200160028201548152602001600382015481526020016004820160009054906101000a900460ff16600281111561033757610336610e43565b5b600281111561034957610348610e43565b5b81525050905081816020019073ffffffffffffffffffffffffffffffffffffffff16908173ffffffffffffffffffffffffffffffffffffffff1681525050838160600181815250506001816080019060028111156103aa576103a9610e43565b5b908160028111156103be576103bd610e43565b5b8152505080600160008781526020019081526020016000206000820151816000015560208201518160010160006101000a81548173ffffffffffffffffffffffffffffffffffffffff021916908373ffffffffffffffffffffffffffffffffffffffff160217905550604082015181600201556060820151816003015560808201518160040160006101000a81548160ff0219169083600281111561046657610465610e43565b5b02179055509050503373ffffffffffffffffffffffffffffffffffffffff166108fc849081150290604051600060405180830381858888f193505050501580156104b4573d6000803e3d6000fd5b505050505050565b6000600160008381526020019081526020016000206040518060a0016040529081600082015481526020016001820160009054906101000a900473ffffffffffffffffffffffffffffffffffffffff1673ffffffffffffffffffffffffffffffffffffffff1673ffffffffffffffffffffffffffffffffffffffff16815260200160028201548152602001600382015481526020016004820160009054906101000a900460ff16600281111561057557610574610e43565b5b600281111561058757610586610e43565b5b8152505090506000816080019060028111156105a6576105a5610e43565b5b908160028111156105ba576105b9610e43565b5b8152505080600160008481526020019081526020016000206000820151816000015560208201518160010160006101000a81548173ffffffffffffffffffffffffffffffffffffffff021916908373ffffffffffffffffffffffffffffffffffffffff160217905550604082015181600201556060820151816003015560808201518160040160006101000a81548160ff0219169083600281111561066257610661610e43565b5b02179055509050505050565b60008060009054906101000a900473ffffffffffffffffffffffffffffffffffffffff16905090565b61069f610c6f565b600160008381526020019081526020016000206040518060a0016040529081600082015481526020016001820160009054906101000a900473ffffffffffffffffffffffffffffffffffffffff1673ffffffffffffffffffffffffffffffffffffffff1673ffffffffffffffffffffffffffffffffffffffff16815260200160028201548152602001600382015481526020016004820160009054906101000a900460ff16600281111561075657610755610e43565b5b600281111561076857610767610e43565b5b815250509050919050565b600060026000838152602001908152602001600020549050919050565b60008054906101000a900473ffffffffffffffffffffffffffffffffffffffff1681565b6000600160008381526020019081526020016000206040518060a0016040529081600082015481526020016001820160009054906101000a900473ffffffffffffffffffffffffffffffffffffffff1673ffffffffffffffffffffffffffffffffffffffff1673ffffffffffffffffffffffffffffffffffffffff16815260200160028201548152602001600382015481526020016004820160009054906101000a900460ff16600281111561086d5761086c610e43565b5b600281111561087f5761087e610e43565b5b81525050905060028160800190600281111561089e5761089d610e43565b5b908160028111156108b2576108b1610e43565b5b8152505080600160008481526020019081526020016000206000820151816000015560208201518160010160006101000a81548173ffffffffffffffffffffffffffffffffffffffff021916908373ffffffffffffffffffffffffffffffffffffffff160217905550604082015181600201556060820151816003015560808201518160040160006101000a81548160ff0219169083600281111561095a57610959610e43565b5b02179055509050505050565b60006004339080600181540180825580915050600190039060005260206000200160009091909190916101000a81548173ffffffffffffffffffffffffffffffffffffffff021916908373ffffffffffffffffffffffffffffffffffffffff1602179055506005600081546109da906110cb565b919050819055905090565b60016020528060005260406000206000915090508060000154908060010160009054906101000a900473ffffffffffffffffffffffffffffffffffffffff16908060020154908060030154908060040160009054906101000a900460ff16905085565b60026020528060005260406000206000915090505481565b60008233604051602001610a7592919061117d565b604051602081830303815290604052805190602001209050610a9681610c01565b15610acd576040517fb0fc2d9700000000000000000000000000000000000000000000000000000000815260040160405180910390fd5b600060036000815480929190610ae2906110cb565b9190505590508160026000838152602001908152602001600020819055506040518060a001604052808281526020013373ffffffffffffffffffffffffffffffffffffffff16815260200134815260200184815260200160006002811115610b4d57610b4c610e43565b5b815250600160008481526020019081526020016000206000820151816000015560208201518160010160006101000a81548173ffffffffffffffffffffffffffffffffffffffff021916908373ffffffffffffffffffffffffffffffffffffffff160217905550604082015181600201556060820151816003015560808201518160040160006101000a81548160ff02191690836002811115610bf357610bf2610e43565b5b021790555090505050505050565b60003373ffffffffffffffffffffffffffffffffffffffff166001600084815260200190815260200160002060010160009054906101000a900473ffffffffffffffffffffffffffffffffffffffff1673ffffffffffffffffffffffffffffffffffffffff16149050919050565b6040518060a0016040528060008152602001600073ffffffffffffffffffffffffffffffffffffffff168152602001600081526020016000801916815260200160006002811115610cc357610cc2610e43565b5b81525090565b600080fd5b6000819050919050565b610ce181610cce565b8114610cec57600080fd5b50565b600081359050610cfe81610cd8565b92915050565b6000819050919050565b610d1781610d04565b8114610d2257600080fd5b50565b600081359050610d3481610d0e565b92915050565b600080600060608486031215610d5357610d52610cc9565b5b6000610d6186828701610cef565b9350506020610d7286828701610cef565b9250506040610d8386828701610d25565b9150509250925092565b600060208284031215610da357610da2610cc9565b5b6000610db184828501610cef565b91505092915050565b600073ffffffffffffffffffffffffffffffffffffffff82169050919050565b6000610de582610dba565b9050919050565b610df581610dda565b82525050565b6000602082019050610e106000830184610dec565b92915050565b610e1f81610d04565b82525050565b610e2e81610dda565b82525050565b610e3d81610cce565b82525050565b7f4e487b7100000000000000000000000000000000000000000000000000000000600052602160045260246000fd5b60038110610e8357610e82610e43565b5b50565b6000819050610e9482610e72565b919050565b6000610ea482610e86565b9050919050565b610eb481610e99565b82525050565b60a082016000820151610ed06000850182610e16565b506020820151610ee36020850182610e25565b506040820151610ef66040850182610e16565b506060820151610f096060850182610e34565b506080820151610f1c6080850182610eab565b50505050565b600060a082019050610f376000830184610eba565b92915050565b600060208284031215610f5357610f52610cc9565b5b6000610f6184828501610d25565b91505092915050565b610f7381610cce565b82525050565b6000602082019050610f8e6000830184610f6a565b92915050565b6000610f9f82610dba565b9050919050565b610faf81610f94565b82525050565b6000602082019050610fca6000830184610fa6565b92915050565b610fd981610d04565b82525050565b6000602082019050610ff46000830184610fd0565b92915050565b61100381610e99565b82525050565b600060a08201905061101e6000830188610fd0565b61102b6020830187610dec565b6110386040830186610fd0565b6110456060830185610f6a565b6110526080830184610ffa565b9695505050505050565b6000806040838503121561107357611072610cc9565b5b600061108185828601610d25565b925050602061109285828601610cef565b9150509250929050565b7f4e487b7100000000000000000000000000000000000000000000000000000000600052601160045260246000fd5b60006110d682610d04565b91507fffffffffffffffffffffffffffffffffffffffffffffffffffffffffffffffff8214156111095761110861109c565b5b600182019050919050565b6000819050919050565b61112f61112a82610d04565b611114565b82525050565b60008160601b9050919050565b600061114d82611135565b9050919050565b600061115f82611142565b9050919050565b61117761117282610dda565b611154565b82525050565b6000611189828561111e565b6020820191506111998284611166565b601482019150819050939250505056fea2646970667358221220af1ddfa1d3b937a697f930e1c3a134d22a4afd6a90a684bd871a289531a8696264736f6c634300080b0033",
  "immutableReferences": {},
  "source": "// SPDX-License-Identifier: MIT\r\npragma solidity >=0.4.22 <0.9.0;\r\n\r\ncontract Courses{\r\n \r\n address payable public owner;\r\n enum State{Purchased,Activated,DeActivated}\r\n struct Course{\r\n    uint id;\r\n    address owner;\r\n    uint price;\r\n    bytes32 proof;\r\n    State state;\r\n }\r\n mapping(bytes32=>Course) public ownedCourses;\r\n mapping(uint=>bytes32) public ownedCourseHash;\r\n\r\n\r\n uint private totalOwnedCourse;\r\n ///Only owner can access function\r\n error OnlyOwner();\r\n   /// Course has already a Owner!\r\n  error CourseHasOwner();\r\n\r\n modifier onlyOwner() {\r\n    if (msg.sender != getContractOwner()) {\r\n      revert OnlyOwner();\r\n    }\r\n    _;\r\n }\r\n function purchaseCourse(\r\n    uint courseId,\r\n    bytes32 proof\r\n ) external payable{\r\n      bytes32 courseHash = keccak256(abi.encodePacked(courseId, msg.sender));\r\n    if (hasCourseOwnership(courseHash)) {\r\n      revert CourseHasOwner();\r\n    }\r\n    \r\n    uint id = totalOwnedCourse++;\r\n    ownedCourseHash[id]=courseHash;\r\n    ownedCourses[courseHash] = Course({\r\n      id: id,\r\n      price: msg.value,\r\n      proof: proof,\r\n      owner: msg.sender,\r\n      state: State.Purchased\r\n    });\r\n    \r\n\r\n\r\n }\r\n function getContractOwner()view public returns(address){\r\n    return owner;\r\n }\r\nfunction hasCourseOwnership(bytes32 courseHash)\r\n    private\r\n    view\r\n    returns (bool)\r\n{\r\n    return ownedCourses[courseHash].owner == msg.sender;\r\n}\r\n\r\n function getCourseByHash(bytes32 courseHash)\r\n    external\r\n    view\r\n    returns (Course memory)\r\n  {\r\n    return ownedCourses[courseHash];\r\n  }\r\n  function getCourseByIndex(uint index)\r\n    external\r\n    view\r\n    returns (bytes32)\r\n  {\r\n    return ownedCourseHash[index];\r\n  }\r\nfunction withdrawCourse(bytes32 courseHash,bytes32 proof,uint amount) external payable{\r\n\r\n   \r\n address def;   \r\n Course memory course =ownedCourses[courseHash];\r\n course.owner=def;\r\n course.proof=proof;\r\n course.state=State.Activated;\r\n ownedCourses[courseHash]=course;\r\n    \r\n  payable(msg.sender).transfer(amount);\r\n\r\n  }\r\naddress [] funders;\r\nuint totalFunders;\r\nfunction addFunds() external payable returns(uint){\r\n  funders.push(msg.sender);\r\n  return ++totalFunders;\r\n  \r\n}\r\nfunction deactivateCourse(bytes32 courseHash) external payable{\r\n\r\n Course memory course =ownedCourses[courseHash];\r\n course.state=State.DeActivated;\r\n ownedCourses[courseHash]=course;\r\n    \r\n \r\n}\r\nfunction activateCourse(bytes32 courseHash) external payable{\r\n\r\n Course memory course =ownedCourses[courseHash];\r\n course.state=State.Purchased;\r\n ownedCourses[courseHash]=course;\r\n    \r\n                      \r\n}\r\n}\r\n\r\n",
  "sourcePath": "C:\\Users\\paras mehta\\Desktop\\BCT Project\\coure-market\\contracts\\Courses.sol",
  "compiler": {
    "name": "solc",
    "version": "0.8.11+commit.d7f03943.Emscripten.clang"
  },
  "schemaVersion": "3.4.16",
  "updatedAt": "2023-12-01T04:35:44.374Z",
  "networkType": "ethereum",
  "devdoc": {
    "kind": "dev",
    "methods": {},
    "version": 1
  },
  "userdoc": {
    "errors": {
      "CourseHasOwner()": [
        {
          "notice": "Course has already a Owner!"
        }
      ],
      "OnlyOwner()": [
        {
          "notice": "Only owner can access function"
        }
      ]
    },
    "kind": "user",
    "methods": {},
    "version": 1
  }
}